{
  "abi": [
    {
      "inputs": [
        {
          "internalType": "address",
          "name": "pool",
          "type": "address"
        },
        {
          "internalType": "int16",
          "name": "tickBitmapIndex",
          "type": "int16"
        }
      ],
      "name": "getPopulatedTicksInWord",
      "outputs": [
        {
          "components": [
            {
              "internalType": "int24",
              "name": "tick",
              "type": "int24"
            },
            {
              "internalType": "int128",
              "name": "liquidityNet",
              "type": "int128"
            },
            {
              "internalType": "uint128",
              "name": "liquidityGross",
              "type": "uint128"
            }
          ],
          "internalType": "struct ITickLens.PopulatedTick[]",
          "name": "populatedTicks",
          "type": "tuple[]"
        }
      ],
      "stateMutability": "view",
      "type": "function"
    }
  ],
  "bytecode": {
    "object": "0x608060405234801561001057600080fd5b5061052a806100206000396000f3fe608060405234801561001057600080fd5b506004361061002b5760003560e01c8063351fb47814610030575b600080fd5b61004361003e366004610333565b610059565b6040516100509190610458565b60405180910390f35b60606000836001600160a01b0316635339c296846040518263ffffffff1660e01b815260040161008991906104c0565b60206040518083038186803b1580156100a157600080fd5b505afa1580156100b5573d6000803e3d6000fd5b505050506040513d601f19601f820116820180604052508101906100d99190610440565b90506000805b610100811015610103576001811b8316156100fb576001909101905b6001016100df565b506000856001600160a01b031663d0c93a7c6040518163ffffffff1660e01b815260040160206040518083038186803b15801561013f57600080fd5b505afa158015610153573d6000803e3d6000fd5b505050506040513d601f19601f820116820180604052508101906101779190610371565b90508167ffffffffffffffff8111801561019057600080fd5b506040519080825280602002602001820160405280156101ca57816020015b6101b76102df565b8152602001906001900390816101af5790505b50935060005b6101008110156102d5576001811b8416156102cd5760405163f30dba9360e01b8152600187900b60020b60081b820183029060009081906001600160a01b038b169063f30dba93906102269086906004016104ce565b6101006040518083038186803b15801561023f57600080fd5b505afa158015610253573d6000803e3d6000fd5b505050506040513d601f19601f820116820180604052508101906102779190610399565b5050505050509150915060405180606001604052808460020b815260200182600f0b8152602001836001600160801b0316815250888760019003975087815181106102be57fe5b60200260200101819052505050505b6001016101d0565b5050505092915050565b604080516060810182526000808252602082018190529181019190915290565b8051801515811461030f57600080fd5b919050565b805161030f816104dc565b805163ffffffff8116811461030f57600080fd5b60008060408385031215610345578182fd5b8235610350816104dc565b91506020830135600181900b8114610366578182fd5b809150509250929050565b600060208284031215610382578081fd5b81518060020b8114610392578182fd5b9392505050565b600080600080600080600080610100898b0312156103b5578384fd5b88516001600160801b03811681146103cb578485fd5b80985050602089015180600f0b81146103e2578485fd5b80975050604089015195506060890151945060808901518060060b8114610407578485fd5b935061041560a08a01610314565b925061042360c08a0161031f565b915061043160e08a016102ff565b90509295985092959890939650565b600060208284031215610451578081fd5b5051919050565b602080825282518282018190526000919060409081850190868401855b828110156104b3578151805160020b855286810151600f0b878601528501516001600160801b03168585015260609093019290850190600101610475565b5091979650505050505050565b60019190910b815260200190565b60029190910b815260200190565b6001600160a01b03811681146104f157600080fd5b5056fea2646970667358221220d0a3710c70db8956dc83701247ae79ef26dcc255f465a595b413ad4bd0aa9c3464736f6c63430007060033",
    "linkReferences": {}
  },
  "methodIdentifiers": {
    "getPopulatedTicksInWord(address,int16)": "351fb478"
  },
  "id": 35
}