{
  "abi": [
    {
      "inputs": [
        {
          "internalType": "bytes32",
          "name": "hash",
          "type": "bytes32"
        },
        {
          "internalType": "bytes",
          "name": "signature",
          "type": "bytes"
        }
      ],
      "name": "isValidSignature",
      "outputs": [
        {
          "internalType": "bytes4",
          "name": "magicValue",
          "type": "bytes4"
        }
      ],
      "stateMutability": "view",
      "type": "function"
    },
    {
      "inputs": [],
      "name": "owner",
      "outputs": [
        {
          "internalType": "address",
          "name": "",
          "type": "address"
        }
      ],
      "stateMutability": "view",
      "type": "function"
    },
    {
      "inputs": [
        {
          "internalType": "address",
          "name": "_owner",
          "type": "address"
        }
      ],
      "name": "setOwner",
      "outputs": [],
      "stateMutability": "nonpayable",
      "type": "function"
    }
  ],
  "bytecode": {
    "object": "0x608060405234801561001057600080fd5b5061027a806100206000396000f3fe608060405234801561001057600080fd5b50600436106100415760003560e01c806313af4035146100465780631626ba7e1461006e5780638da5cb5b14610138575b600080fd5b61006c6004803603602081101561005c57600080fd5b50356001600160a01b031661015c565b005b61011b6004803603604081101561008457600080fd5b813591908101906040810160208201356401000000008111156100a657600080fd5b8201836020820111156100b857600080fd5b803590602001918460018302840111640100000000831117156100da57600080fd5b91908080601f01602080910402602001604051908101604052809392919081815260200183838082843760009201919091525092955061017e945050505050565b604080516001600160e01b03199092168252519081900360200190f35b610140610235565b604080516001600160a01b039092168252519081900360200190f35b600080546001600160a01b0319166001600160a01b0392909216919091179055565b6020818101516040808401516060808601516000805485518281528089018088528b905292821a8387018190529383018790526080830185905294519096939492936001600160a01b039093169260019260a080820193601f1981019281900390910190855afa1580156101f6573d6000803e3d6000fd5b505050602060405103516001600160a01b031614156102225750630b135d3f60e11b925061022f915050565b506000925061022f915050565b92915050565b6000546001600160a01b03168156fea26469706673582212209ef16f572c6f18bac6ef8c4394bd8c80f10d9708200766d02173e2d85a5a5dd764736f6c63430007060033",
    "linkReferences": {}
  },
  "methodIdentifiers": {
    "isValidSignature(bytes32,bytes)": "1626ba7e",
    "owner()": "8da5cb5b",
    "setOwner(address)": "13af4035"
  },
  "id": 73
}