{
  "abi": [
    {
      "inputs": [
        {
          "internalType": "uint256",
          "name": "a",
          "type": "uint256"
        },
        {
          "internalType": "uint256",
          "name": "b",
          "type": "uint256"
        }
      ],
      "name": "functionThatReturnsTuple",
      "outputs": [
        {
          "components": [
            {
              "internalType": "uint256",
              "name": "a",
              "type": "uint256"
            },
            {
              "internalType": "uint256",
              "name": "b",
              "type": "uint256"
            }
          ],
          "internalType": "struct TestMulticall.Tuple",
          "name": "tuple",
          "type": "tuple"
        }
      ],
      "stateMutability": "pure",
      "type": "function"
    },
    {
      "inputs": [
        {
          "internalType": "string",
          "name": "error",
          "type": "string"
        }
      ],
      "name": "functionThatRevertsWithError",
      "outputs": [],
      "stateMutability": "pure",
      "type": "function"
    },
    {
      "inputs": [
        {
          "internalType": "bytes[]",
          "name": "data",
          "type": "bytes[]"
        }
      ],
      "name": "multicall",
      "outputs": [
        {
          "internalType": "bytes[]",
          "name": "results",
          "type": "bytes[]"
        }
      ],
      "stateMutability": "payable",
      "type": "function"
    },
    {
      "inputs": [],
      "name": "paid",
      "outputs": [
        {
          "internalType": "uint256",
          "name": "",
          "type": "uint256"
        }
      ],
      "stateMutability": "view",
      "type": "function"
    },
    {
      "inputs": [],
      "name": "pays",
      "outputs": [],
      "stateMutability": "payable",
      "type": "function"
    },
    {
      "inputs": [],
      "name": "returnSender",
      "outputs": [
        {
          "internalType": "address",
          "name": "",
          "type": "address"
        }
      ],
      "stateMutability": "view",
      "type": "function"
    }
  ],
  "bytecode": {
    "object": "0x608060405234801561001057600080fd5b5061062e806100206000396000f3fe6080604052600436106100555760003560e01c8063295b4e171461005a57806334621235146100855780633b16a6a3146100a75780635170a9d0146100d4578063ac9650d8146100f6578063f3e2229714610116575b600080fd5b34801561006657600080fd5b5061006f61011e565b60405161007c919061052d565b60405180910390f35b34801561009157600080fd5b506100a56100a036600461033f565b610124565b005b3480156100b357600080fd5b506100c76100c236600461042b565b610147565b60405161007c9190610516565b3480156100e057600080fd5b506100e9610168565b60405161007c9190610488565b6101096101043660046102d0565b61016c565b60405161007c919061049c565b6100a56102ac565b60005481565b8060405162461bcd60e51b815260040161013e91906104fc565b60405180910390fd5b61014f6102b6565b5060408051808201909152908152602081019190915290565b3390565b60608167ffffffffffffffff8111801561018557600080fd5b506040519080825280602002602001820160405280156101b957816020015b60608152602001906001900390816101a45790505b50905060005b828110156102a557600080308686858181106101d757fe5b90506020028101906101e99190610536565b6040516101f7929190610478565b600060405180830381855af49150503d8060008114610232576040519150601f19603f3d011682016040523d82523d6000602084013e610237565b606091505b5091509150816102835760448151101561025057600080fd5b6004810190508080602001905181019061026a91906103b8565b60405162461bcd60e51b815260040161013e91906104fc565b8084848151811061029057fe5b602090810291909101015250506001016101bf565b5092915050565b6000805434019055565b604051806040016040528060008152602001600081525090565b600080602083850312156102e2578182fd5b823567ffffffffffffffff808211156102f9578384fd5b818501915085601f83011261030c578384fd5b81358181111561031a578485fd5b866020808302850101111561032d578485fd5b60209290920196919550909350505050565b600060208284031215610350578081fd5b813567ffffffffffffffff811115610366578182fd5b8201601f81018413610376578182fd5b8035610389610384826105a6565b610582565b81815285602083850101111561039d578384fd5b81602084016020830137908101602001929092525092915050565b6000602082840312156103c9578081fd5b815167ffffffffffffffff8111156103df578182fd5b8201601f810184136103ef578182fd5b80516103fd610384826105a6565b818152856020838501011115610411578384fd5b6104228260208301602086016105c8565b95945050505050565b6000806040838503121561043d578182fd5b50508035926020909101359150565b600081518084526104648160208601602086016105c8565b601f01601f19169290920160200192915050565b6000828483379101908152919050565b6001600160a01b0391909116815260200190565b6000602080830181845280855180835260408601915060408482028701019250838701855b828110156104ef57603f198886030184526104dd85835161044c565b945092850192908501906001016104c1565b5092979650505050505050565b60006020825261050f602083018461044c565b9392505050565b815181526020918201519181019190915260400190565b90815260200190565b6000808335601e1984360301811261054c578283fd5b83018035915067ffffffffffffffff821115610566578283fd5b60200191503681900382131561057b57600080fd5b9250929050565b60405181810167ffffffffffffffff8111828210171561059e57fe5b604052919050565b600067ffffffffffffffff8211156105ba57fe5b50601f01601f191660200190565b60005b838110156105e35781810151838201526020016105cb565b838111156105f2576000848401525b5050505056fea2646970667358221220a482e0aa444cf6d1e1930a3126aa9633984a7c71b50eafa06cf81011b006b56664736f6c63430007060033",
    "linkReferences": {}
  },
  "methodIdentifiers": {
    "functionThatReturnsTuple(uint256,uint256)": "3b16a6a3",
    "functionThatRevertsWithError(string)": "34621235",
    "multicall(bytes[])": "ac9650d8",
    "paid()": "295b4e17",
    "pays()": "f3e22297",
    "returnSender()": "5170a9d0"
  },
  "id": 72
}